:020000022000DC
:10600000000001203D6202009562020097620200DA
:10601000996202009B6202009D6202000000000083
:106020000000000000000000000000009F6202006D
:10603000A162020000000000A3620200A56202004B
:1060400085970200AB620200C19B0200159F02000F
:10605000B1620200B3620200459A0200B762020018
:10606000B9620200BB620200BD620200BF620200B0
:10607000C1620200C3620200C5620200C762020080
:10608000C962020025700200CD620200CF620200E8
:10609000C1700200D362020091F70200D7620200D1
:1060A000D9620200DB620200DD620200DF620200F0
:1060B000E1620200E3620200A7620200A76202003E
:1060C000E5620200E7620200E9620200EB620200A0
:0C60D000ED620200EF620200F1620200CB
:1060DC00364937480A1A02D0072291438D46354972
:1060EC0035480A1A06D00722914381F30988022207
:1060FC0082F3148831483249324A00F045F832486C
:10610C003249334A00F040F832483349334A00F000
:10611C003BF833483349344A00F036F833483449B5
:10612C00344A00F031F834483449354A00F02CF840
:10613C0034483549354A00F027F8354835490022AE
:10614C0000F02DF834483549002200F028F8344886
:10615C003449091A082903DB00220260043001606B
:10616C00314A90471F482049884205D002680430C4
:10617C0003B4904703BCF7E700208646EC460020AA
:10618C0000212A4A9047FEE7884207D0521A05D0D0
:10619C00037801300B700131013AF9D17047884214
:1061AC0002D002700130FAE77047000000000120B5
:1061BC0000E000200000012000000120D01F03009F
:1061CC0078220020D8220020F4620200F46202003F
:1061DC0080080300D01F03007822002078220020C2
:1061EC00000A0300000A0300000A0300000A03006F
:1061FC00000A0300000A0300000A0300000A03005F
:10620C00C01F030030200300D8220020D822002019
:10621C00D8220020C83E0020C83E0020CC3E0020E2
:10622C00CC3E0020CC5E00206162020059AF02001F
:10623C000F484FF00701884385460E4880470E48AB
:10624C00016841F470010160BFF34F8FBFF36F8F92
:10625C00FFF73EBF09480A490A4A884207D0521A3A
:10626C0005D0037801300B700131013AF9D1704738
:10627C00000001206992020088ED00E0A8090300EB
:10628C002022002078220020FEE7FEE7FEE7FEE752
:10629C00FEE7FEE7FEE7FEE7FEE7FEE7FEE7FEE7CA
:1062AC00FEE7FEE7FEE7FEE7FEE7FEE7FEE7FEE7BA
:1062BC00FEE7FEE7FEE7FEE7FEE7FEE7FEE7FEE7AA
:1062CC00FEE7FEE7FEE7FEE7FEE7FEE7FEE7FEE79A
:1062DC00FEE7FEE7FEE7FEE7FEE7FEE7FEE7FEE78A
:0862EC00FEE7FEE7FEE700BF3C
:1062F40000487047C03E00207047000007B5044BBB
:106304000093044A402300F032F803B05DF804FB24
:106314001D630200D92200202DE9F8438946144662
:10632400B2B10F4B0F4E0325002743F0010822465C
:1063340009EB0701002005F0FBFD0744241A48B9C6
:1063440033782BB14FF47A40C047013D02D1357008
:10635400BDE8F88301233370002CE8D1F8E700BFCF
:10636400000A0300D8220020704705F015BEF0B5DE
:1063740095B01C46164608460D4602F058FE1A9B78
:106384000D93CDE9086400242346082205A9284674
:106394000A948DF82C400C9402F085FE079B02931E
:1063A400BDF81830ADF80C30BDF81A30ADF80E3029
:1063B4009DF814308DF8114003F00302012A1DD119
:1063C400BDF81440059EC3F3C203C4F383148DF8CF
:1063D4001030A20008230EA9284602F064FEC6F37A
:1063E400952608AB0093224602AB0EA9304600F076
:1063F40071FB284602F01FFE15B0F0BD022AF8D149
:10640400BDF81640C3F3C203A4098DF81030082761
:10641400082C264628BF08263B4632460EA92846A5
:1064240002F041FEA41B08AB02AA31460EA8374471
:1064340000F0B4FB002CEBD1DBE7000010B5054CF9
:10644400FFF793FF0421204600F0B4FA012363729E
:1064540010BD00BF78220020037813F0030F03F06F
:10646400040202D012B910467047B2B103F003031C
:10647400012B03D0022B09D0012070470A68008841
:106484000232C0F3831002440A60F5E70B684288C5
:10649400023303EB92130B60EEE70B68428801337F
:1064A40003EB92130288F4E72DE9F04F89B0054617
:1064B400861C08A8484C019200230F4600F8113DA1
:1064C40000F0E8FF23683B60D4E901231344226809
:1064D40001339B1A04F21C4704F5836A04F214483E
:1064E400B3421AD3019A0023002A6DD0012262F329
:1064F400010343F0040365F389132168A2689DF83E
:106504000F000A4003320E4444F82230266000F0A3
:10651400E5FF012009B0BDE8F08F0121384602F003
:1065240047F8504602F05DF8404602F05AF80DF183
:1065340020096068D4F808B049F8100D00EA0B008F
:10654400033004EB80004946FFF786FF049BB0B993
:106554000BEA030204EB8202D16805919A1C013311
:1065640003EA0B0B04EB8B0C01F00303012B0492E5
:10657400DCF80CB020D0022B04D083460BE00BEAED
:106584000300DDE7BDF816309B0903334FEA1B4BCC
:1065940002EB93030493404602F026F808B1049BEF
:1065A40063605946384602F003F8D4E901231344E2
:1065B400226801339B1A93E7BDF81430C3F38313A5
:1065C4004FEA1B4B1344E5E7022262F3010343F055
:1065D400040365F39F5390E7EC23002008B50E4BAA
:1065E4000E48FF229A600022C3F81824C3E900224F
:1065F400C3F8142483F8202402F0D2FC38B9084AE2
:10660400084B09499B1ADB0802469A4200D108BD8F
:1066140021F822200132F8E7EC2300206809030066
:10662400E0080300680903002022002030B50B4C69
:1066340079B10B4A0B49121BD20800239A4201D1AB
:10664400002030BD01EB83056D88854202D0013303
:10665400F4E7034654F83300F3E700BFE00803000F
:106664006809030020220020094B013903EBC00014
:10667400032909D8DFE801F00A0204060420704760
:1066840000797047407970470020704702207047B6
:10669400E0080300034BD3E90030C31A58425841C1
:1066A400704700BFEC2300202DE9F04387B0FFF7CB
:1066B400F1FF0746002840F0F5807B4DC5F818042B
:1066C400BFF34F8F6868AC680DF1180848F8100DD7
:1066D4002040033005EB80004146FFF7BDFE029BDE
:1066E400064600285FD104EA0302991C013305EB36
:1066F4008202234005EB8303D268DB68049302F033
:106704000303022B0392029162D1BDF80E30674855
:106714004FEA9318B8F1500FC14628BF4FF0500903
:1067240069F38F1309F10801ADF80E3002F050FC43
:106734000746002800F0A48002F079FC334603A940
:106744000822384602F086FC029924EA0106013642
:10675400B600B14535D95FFA89F97EB3F6B2A9EB33
:106764000609214003315FFA89F4B146504E05EB26
:10677400810108234A46384602F06CFC36B109F11F
:10678400080322463146384602F064FC029B08F1B5
:10679400030803EB98030293D5F81834002B4AD16D
:1067A400D5F8104458E02A689A4204D86A603846FA
:1067B40007B0BDE8F08304EA03008AE73C493446A5
:1067C400D7E72140033108234A4605EB8101DAE784
:1067D400012B55D1BDF80C303448C3F3831106297D
:1067E40028BF062161F3891302318900ADF80C300A
:1067F40002F0EEFB0746002842D002F018FC3346B4
:10680400082203A9384602F025FCBDF80C20C2F387
:106814008312B31C96424FEA8303BDD202994A1CE9
:1068240021400331029205EB81010422384602F033
:1068340011FC0136E9E7384602F0FDFBFFF72AFFB9
:1068440080F00100C7B2B2E7637A23B12368394606
:106854001B68204698476468002CF5D1384602F03E
:10686400EAFB06A800F8114D00F014FED5F8183420
:106874000BB9029B6B609DF8070000F02FFEDDE76B
:10688400D5F8104444B90B4B0B491888000440F068
:10689400020000F06BF8D1E7236820469B68984714
:1068A4006468EFE7002782E7EC230020680903000F
:1068B400F823002038220020140A03002DE9F74FA2
:1068C400284C80460F46924601A9012218469B4651
:1068D400D4F80890FFF7E8FD88B3019D0026A91CB1
:1068E4005E4506EB010234D100211F4801F01FFE72
:1068F40080F310006A1C02EA090204EB820200041D
:1069040005EA0903033340EA1840D06014F8232051
:1069140068F3C50204F8232034F8232066F38912AF
:1069240024F8232054F82320012167F39F2244F8FC
:10693400232061F301026FF3820204F8232094F808
:1069440020341BB1FFF7B0FE0028FBD103B0BDE833
:10695400F08F09EA020204EB82025AF82630D3606F
:106964000136BDE7EC2300200828002000231A4646
:10697400FFF7A4BF13B502AC012344F8042D22464B
:10698400FFF79CFF02B010BD07B5CDE90023022339
:106994006A46FFF793FF03B05DF804FB1FB5CDE92A
:1069A4000123069B039301AA0323FFF787FF05B086
:1069B4005DF804FB0F4A30B5D2F810440023214699
:1069C40041B90372D2F810444CB9C2F810044160C2
:1069D400184630BD0D7A9D4205D04968F0E76268DB
:1069E40042606060F4E701330A2BE8D14FF0FF33D3
:1069F400EEE700BFEC230020084A38B50123D2F8A3
:106A0400104482F820341D4604B938BD23686572E9
:106A140020465B6898476468F6E700BFEC230020D3
:106A2400037A052B10B50C460FD0437A23B1084ADC
:106A34000849204601F039FE0749204601F035FE99
:106A44002046BDE8104001F025BE002AF8D0F3E747
:106A54006F0A0300740A0300940A0300C38873B521
:106A640004460D4633B1144A00921449144A284688
:106A740001F01BFE217A05291CD0637A4BB1A08852
:106A8400FFF7F2FD0F4B104953F82020284601F080
:106A94000CFE227A0D4BA08853F822600021FFF7E8
:106AA400C5FD0B4903463246284602B0BDE8704096
:106AB40001F0FBBD02B070BD6F0A03007F0A030042
:106AC400770A03003C0A0300740A0300A40A0300C3
:106AD400970A03002DE9F04385B01F460C9D00235F
:106AE40006460C46904695F80C902B73294638467A
:106AF400FFF7B4FFB8F1060F09D8DFE808F0041275
:106B0400181F283340003146284601F0CEFD0022EC
:106B140029463846FFF784FF85F80C9005B0BDE898
:106B2400F08322683146284601F0BFFDEFE7D4E93F
:106B340000233146284601F0B8FDE8E7A368009336
:106B44003146D4E90023284601F0AFFDDFE7E368CE
:106B54000193A36800933146D4E90023284601F049
:106B6400A4FDD4E723690293E3680193A368009327
:106B74003146D4E90023284601F097FDC7E763694D
:106B8400039323690293E3680193A3680093314656
:106B9400D4E90023284601F088FDB8E708292DE947
:106BA400F84F80460E4617461C4636D8002593F803
:106BB4000C901D7319461046FFF750FFDFF87CA0B8
:106BC400DFF87CB0AE422AD918F805205946204691
:106BD40001F06BFD0135082DF4D11649DFF864B0DE
:106BE400204601F062FD0025AE421DD918F805A02B
:106BF400504609F04FFD002814BF52462E22594634
:106C0400204601F052FD0135082DEDD10122214627
:106C14003846FFF705FF84F80C90BDE8F88F51461D
:106C2400204601F042FDD5E70349204601F03DFD31
:106C3400E9E700BF6A0A0300680A0300660A030062
:106C4400600A03006C0A03002DE9F04F3B4F89B042
:106C540000263B4B1B78F5B2AB4202D809B0BDE825
:106C6400F08F384B196811F835000124A0F1200287
:106C7400C0F1200304FA02F924FA03F349EA0309F0
:106C8400D7E9002304FA00F8CDE9042302EA080254
:106C940003EA0903134301EBC50B4CD0DDE90423DC
:106CA40022EA080223EA0903C7E90023079102F054
:106CB400BDFE0799844611F83500A0F12002C0F109
:106CC400200324FA03F304FA02F21A4304FA00F349
:106CD40000931D4B0192DDE90045D3E900231440E4
:106CE4001D4022462B465FFA8CF40025CDE904456D
:106CF400049CA0F12005AC400394049CC0F1200145
:106D040024FA01F1039C0C430499039481400291F9
:106D1400DDE90245AB4208BFA2420CD19BF8011049
:106D24004B1E59425941A1EB0C02DBF8043051428D
:106D3400514103B1984701368BE700BF402800203A
:106D44001028002048280020382800202DE9F84F7A
:106D54000646244800F08EFB002841D10123A6F109
:106D64002001C6F1200203FA01FB23FA02F203FA1E
:106D740006FA1D4BD3E900014BEA020B00EA0A08AC
:106D840001EA0B0958EA09021F4623D1304602F0F2
:106D94004DFE164BB8B1D3E9000140EA0A0441EABA
:106DA4000B05C3E90045D7E900234BEA0305104B63
:106DB4000C4819684AEA0204C7E900450022BDE804
:106DC400F84F00F013BBD3E9000120EA0A0421EADA
:106DD4000B05E6E720EA0A0421EA0B05C3E90045AE
:106DE400BDE8F88F1828002040280020382800200B
:106DF40014280020042A2DE9F34105460C461646C2
:106E04003AD902F04BFDD8B11C4B1D491D601D4BF6
:106E1400DFF884801C701C4B00221E600023C1E933
:106E240000231A49C1E90023013CE4B200260327E8
:106E3400FF2C0CD1164A1748002100F0C5FA03E0D4
:106E440002F0F4FC0028DFD002B0BDE8F08123B2E8
:106E540005EBC30201A992788DF8052015F83300DB
:106E64008DF8066042468DF8047002F021FD013C65
:106E7400E4B20028DCD0E7E70720E5E74828002053
:106E84003828002010280020142800204028002042
:106E94004D6C0200040B0300516D020070B5084DE7
:106EA400084E00242B789C4201D3002070BD336827
:106EB400012113F8340002F073FD0134F2E700BF3E
:106EC40010280020482800201FB50021039001AAA3
:106ED40044F20100CDE9011100F004F805B05DF8B9
:106EE40004FB000010B572B6FFF786FDFFF7DCFB6C
:106EF4000028FBD1104C11492088000440F0010007
:106F0400FFF734FD0E4B1B68DB0700D500BE20885D
:106F14000C49000440F00200FFF728FDBFF34F8F37
:106F240009490A4BCA6802F4E0621343CB60BFF319
:106F34004F8F00BFFDE700BF38220020080B03007D
:106F4400F0ED00E0140B030000ED00E00400FA058E
:106F5400094A537891780133DBB2994208BF002380
:106F6400117899421FBF03705078182303FB002047
:106F740014BF0430002070474C28002073B5054628
:106F840002A8002400F8014D0E4600F083FA0DF12A
:106F94000600FFF7DDFF90B106700A4B9DF806204E
:106FA40045605A709DF8070000F098FA24B9064B22
:106FB4004FF48012C3F80021204602B070BD0424AF
:106FC400F0E700BF4C28002000E100E0024B4FF442
:106FD4003C6043F001031847300B030038B50C4BF9
:106FE4000C4C4FF40032C3F8802001254FF4803359
:106FF400C4F84833C4F808336560FFF7E7FF064B6D
:10700400A56000241C60FFF7E1FF044B1C7038BD31
:1070140000E100E000100140682900205929002007
:10702400F8B51F4B1F491B680025C1F84051C1F832
:107034004451C1F84851C1F84C51C1F80051C1F84C
:1070440004514BB3D1F8044517490968641A24F074
:107054007F442F461A68A24209D8A41A15441A7C00
:10706400DE691AB11F74D3E905209047AEB90F4BFE
:107074000F4A197813788B4205D10133DBB2022B06
:1070840008BF0023137012780A4B43F822500A4BAE
:107094004FF48012C3F80021F8BD3346DAE700BF8D
:1070A4006C29002000100140682900206429002078
:1070B400652900205C29002000E100E02DE9F74F5C
:1070C4009E4A9F49137809789E4D99423CD00133DA
:1070D400DBB2022B08BF002313709B4912789B4B31
:1070E4000F6853F822003B1823F07F4300220B6003
:1070F4002B6816461446944613B942B12B6006E039
:10710400196881420ED902B12B60091A19604FF037
:1071140001082B68DFF83CA200930027BEB9DFF812
:107124003CB260E0401A0C44D968C3F800C0D3F8FC
:107134001CE031B13A1922F07F42C3E90121DE613A
:107144001E4601227346D7E70026B046E1E73446DF
:10715400F6697D4A63681268DFF804C2A068991A68
:1071640021F07F41614500F2A580014421600122A4
:1071740022742A680023C4E90133E361002A40F041
:10718400A2802C60CAE75A1C9BF80210D2B291422A
:107194008BF8002004BF00228BF80020182202FB89
:1071A40003B32A6819799C68022974D003297ED014
:1071B400012918D1217CB1B9DA6862601A69A26028
:1071C4005A699B69A361624BE2601B78002BC0D0B3
:1071D4006160BEE79C4200F093809946DB69002B16
:1071E400F8D1002323749BF800309BF801209A42C5
:1071F400C9D12B682FB9009A934202D1B8F1000F7C
:1072040043D0002B79D0D3F800A0524D4E4BD5F883
:1072140004751C68DFF84C813E1B98F8003026F09A
:107224007F4603369BB94FF48033C5F84433C5F821
:107234000433494B4FF400324FF00109C3F8802165
:107244001A60C5F80090FFF7C1FE88F80090B245B7
:107254002CBF5444A41924F07F44C5F84045D5F804
:107264000435DB1B23F07F43E41B033324F07F440A
:10727400A3420AD9D5F80435C5F84035FFF7A6FE70
:10728400354B4FF40032C3F80021314B00221A7001
:1072940003B0BDE8F08F13469146A0E71174D2699C
:1072A4000123002AFAD1002B9DD02A609BE70023FA
:1072B4001946F6E7D31A23F07F43834234BFC31A37
:1072C4000023236053E721681368994213D8591A9D
:1072D4001160E26155E7091AD8691A4638B10346C4
:1072E40018688842F7D3401A18601846134621607C
:1072F400E061DC6112E71346F2E7FFF76FFEC4E7D3
:107304004C450DD1D3692B6053B90F48019201212B
:10731400CAF8081003600E4B1970FFF757FE019A64
:10732400E1692368C9F81C1011B1086803440B60B3
:107334002B689A4218BF012753E700BF6429002035
:10734400652900206C290020682900205C29002080
:10735400582900200010014000E100E04C280020E2
:10736400FEFF7F005929002008B5FFF737FE104BB8
:1073740000200B2218809A700E4B18600E4B187068
:107384000E4B18700E4B4FF48012E021C3F880218D
:1073940083F814131A6002F18042A2F56F22C2F836
:1073A400080583F81113074BD2F804251A6008BDA9
:1073B4004C2800206C290020642900206529002025
:1073C40000E100E068290020074B9B784BB132B103
:1073D40028B10368187C20B959745A617047072092
:1073E40070470820704700BF4C2800202DE9F74360
:1073F4001D4FBB7805460E4690469BB390B30429B7
:107404002ED9436973B3437C02A80024012B00F8EE
:10741400014D0CBF8946A14600F03CF80DF1060071
:10742400FFF796FDD0B101230370104B4560D3F8EC
:107434000435C0E90498C0E902369DF806307B7033
:107444009DF8070000F04AF824B9094B4FF4801264
:10745400C3F80021204603B0BDE8F0830424EFE71D
:107464000724F7E70824F5E74C2800200010014022
:1074740000E100E0064A92783AB130B1426922B1A3
:10748400002202740221FFF779BD0820704700BF73
:107494004C28002070B5EFF3108672B60C4A94683D
:1074A40001239CB993600B4B0B4DD3F880102940FA
:1074B4001160C3F88050D3F8841051604FF0FF324C
:1074C400C3F88420047006B962B670BD0370FAE78D
:1074D4007029002000E100E0FC06FFBD084B9A681B
:1074E40010B55AB150B9EFF3108172B6054A1C6851
:1074F40014605C685460986001B962B610BD00BF46
:107504007029002000E100E070B5064E0546002415
:1075140056F824300BB1284698470134042CF7D18F
:1075240070BD00BF88290020033080B240F2FD33D3
:10753400984230B51FD8124B1A783AB91C895D8924
:107544002C440444A4B2B4F5806F0AD31A7DA2B9C2
:107554009A8BDC8B2244024492B2B2F5806F0CD237
:1075640001220A801446142202FB04335A8910446F
:107574005881002030BD0920FCE70720FAE700BF4E
:10758400BC2900200B4A0C4B5188142000FB01310C
:10759400CB6833B90420496810700122074801F010
:1075A400F1BA05230649137002238B8001220023BC
:1075B4000968F3E7A0290020BC29002064220020E8
:1075C400742A002007B5002305490093054A096879
:1075D4000548082301F052FA03B05DF804FB00BF2C
:1075E400742A0020440B03006422002007B5002302
:1075F400009301460823034A034801F03FFA03B00D
:107604005DF804FB3C0B03006422002013B5002347
:107614000C46009301460423074A084801F02EFA59
:1076240038B9074B142202FB04340123237402B03B
:1076340010BD0E20FBE700BF380B030064220020BE
:10764400BC29002037B50A480A4B42689C8819684F
:1076540053880325033305709BB2002000909B00E0
:1076640001EB8401044801F009FA03B030BD00BF06
:10767400A0290020742A00206422002010B50146AD
:10768400044800F088FE1C220446002109F071F829
:10769400204610BD842200204388033300EB83037B
:1076A400994209D382884FF6FF739A4206D0008824
:1076B400B0FA80F0400970470220704701207047FB
:1076C4002DE9F8430223DFF860800B800D4617464E
:1076D40000F5805600F108044FF00109B4420FD2BE
:1076E400236801330CD031462046FFF7D5FF48B15B
:1076F4000FB187F8009002280BD14FF480632B80E0
:10770400BDE8F883A368D8F80020934201D9C8F8EB
:1077140000302B886288033313442B80638803333F
:1077240004EB8304DAE700BFB4290020144A1423CD
:1077340003FB002070B50B6844680D4604F58056C1
:107744009BB15C88033403EB8404B4420BD22368FA
:10775400013308D031462046FFF79EFF012809D0A7
:1077640005D30228F1D1002003E00834EDE72C60B2
:10777400012070BD6388033304EB8304E5E700BF95
:10778400BC290020436873B505460C466BB3254AF3
:10779400D1688B4229D31269934226D813F003028D
:1077A40023D121490089098988421ED12868996812
:1077B40088421AD11D494868834203D900F5805094
:1077C40083420ED38A6993420DD902F580529342C3
:1077D40009D2012323800020B0FA80F0400902B0CE
:1077E40070BD1346F6E70A20F6E7002323801E4601
:1077F4002388012B01D90020F1E7019601A92088F3
:10780400FFF794FF18B9238801332380F0E7019B25
:107814002A6899689142F1D16B60034B1B892B81D3
:10782400DDE700BF64220020A0290020BC2900203D
:107834002DE9F8431C461E4B1B7806460F46154699
:10784400002B30D0002A30D07CB3DFF86C804FF0AE
:107854001409A388012B01D90A201AE009FB03F3B8
:1078640018F80330BBB1A3880133A380F1E7236880
:107874001EB19988328891420DD11FB119883A8876
:10788400914208D19A68C5E900230A4B1B892B81D0
:107894000020BDE8F8832146A088FFF747FF0028B1
:1078A400E5D12060DFE70220F3E70520F1E700BF20
:1078B40098290020A0290020BC29002008B5074BE6
:1078C400191D5888FFF732FF18B1BDE80840FFF7CB
:1078D400B9BEBDE80840FFF755BE00BFA02900208F
:1078E4002DE9F04FA04FDFF8A49289B00646B846C0
:1078F4003B6823B949469D4800F087FD3860D8F8B5
:10790400005029784B1E052B00F21281DFE813F09A
:10791400060076007600060106015D0126B1944B4F
:1079240000225A60012424E02B79032B1DD8DFE8C0
:1079340003F01502424D8F490B78022B084631D0D3
:107944000B7D022B4FF001032ED114225343C21896
:107954000020C8545068FFF749FE03E001232B714F
:10796400FFF730FE002800F0D380814B00225A60DC
:107974000E241422002103A808F0FBFE41F61D5337
:107984009C4208BF0024D8F8003004941A78023AC4
:10799400042A00F2D381DFE812F0B401C001E3014C
:1079A400EB01F2010023D0E7714A13700023536006
:1079B40041F61D54DDE770497048002302222B7103
:1079C4008A800122096801F0DDF8CBE76A4C0026C1
:1079D4002E712068674DFFF709FE694BD4F800C08B
:1079E4005A8814235343EA18EE5451682160A1883D
:1079F400C2F804C011810222A280B3E7B5F814A032
:107A0400AA7DDFF870B1AEB1022AEB8806D9142141
:107A140001FB0AB1DA1C088902440A81142202FB20
:107A24000ABAC3F57F43BAF80A20FD331344AAF80F
:107A34000A3077E7142303FB0AB318895C6804EB64
:107A44008004062A05D8DFE802F0264C34421C588C
:107A540066000F24AA7DEB88022A06D9142101FBB3
:107A64000AB1DA1C088902440A81142202FB0ABA08
:107A7400C3F57F43BAF80A20FD331344AAF80A3049
:107A840077E74048404900234360AB690360FFF750
:107A940079FE00285AD00223AB75002300930423F7
:107AA400EA182146354800F0E9FF002830D00E24BA
:107AB400D0E72B69002B0CBF01230323AB750023F4
:107AC400009305F10C02042304F10801EAE7012301
:107AD400AB750022EB8800929B002A6904F10C012B
:107AE400E0E7032914BF06230523AB7500230093A5
:107AF400042305F10802E118D4E70623AB75224BF1
:107B04001988204B5868FFF781FD04460028A1D14D
:107B140009B0BDE8F08F41F61D549BE7002E7FF4B9
:107B240001AF2B79012B33D004D3022B3FF440AFA8
:107B34000F241EE702232B710DF10A01EB68039356
:107B440003A8CDE90466FFF71DFE08B90A2410E76F
:107B54000498BDF80A108388EB8003882B81FFF713
:107B640055FD044627E000BFB829002084220020E8
:107B740098290020BC290020742A002064220020B7
:107B8400A02900207C290020802A0020B029002080
:107B9400DFF808A203AA53463146A81DFFF748FEA2
:107BA400044660B9BAF804100498FFF72FFD0446A0
:107BB4000A2C3FF4FDAE002C7FF4DBAEA8E70822CC
:107BC4003146504608F0D5FDF2E7002E7FF4AAAE08
:107BD4006D4B1A7BB2B11E731A78013A062AA7D8E4
:107BE40001A151F822F000BF937C0200B97C02008D
:107BF400D77C0200DD7C0200357B0200E37C0200BE
:107C0400F97C02001A78072AE6D801A151F822F07B
:107C1400357C0200DD7B0200DD7B02005B7C020020
:107C24006F7C02008F7C02008F7C0200577C020074
:107C34001A89564901321A8100225A801A730A7825
:107C4400B2FA82F252099A720A7DB2FA82F25209A7
:107C5400DA72012207E04E4958688A884088033264
:107C640002448A8002221A70B6E7484C5A8848496E
:107C7400142505FB02420868546850608888108106
:107C840002228A800C600622EDE70722EBE79A7A4B
:107C940032B9DA7A8AB900221A705A805A6087E6B1
:107CA4003A4900229A72CA68002AF2D1097C002952
:107CB400EFD05A80FFF702FE53E70022DA72334A0C
:107CC400116A0029E7D192F82420002AE3D0012286
:107CD400EFE7FFF7B7FC44E7FFF754FC41E7062260
:107CE4001A702A4A5B88142101FB03235868FFF7A2
:107CF4007DFC36E707221A7000225A60FFF762FC07
:107D04002FE701228DF80C201A89ADF818209A88E3
:107D1400DB68ADF81A20059310E002228DF80C20E0
:107D24001A89ADF818209A88ADF81A20DA689B7D74
:107D340005929A1F534253418DF81C3003A8FFF754
:107D4400E3FB002649461348C8F8006000F088FBAE
:107D54000121114800F037FC00287FF4C9ADD7E6B3
:107D640003228DF80C20DA88ADF818201A89CFE7A1
:107D74000422DB888DF80C20ADF81830DEE70523EB
:107D84008DF80C30DAE700BFA0290020BC290020C0
:107D9400742A002084220020702A0020842A0020D3
:107DA4004068FFF79DBD000008B50121044800F0BC
:107DB400F4FB18B9BDE80840FFF792BD08BD00BF49
:107DC400702A00202DE9F3419846354B1B7806466E
:107DD4000D46002B5BD000295BD009884FF6FF735A
:107DE400994258D06B88002B55D06B689B0754D1AF
:107DF4004AB92F890DF102013846FFF795FB30B1DE
:107E040002B0BDE8F08113885788ADF8023001A8AC
:107E1400FFF734FC044658B9BDF80230214A142156
:107E240001FB032358890338C01B58810820E7E766
:107E340000238375BDF8023083826B68036180F888
:107E440000800121184800F0B3FB2B882381B8F18E
:107E5400030F6B88A38004BF0423A3754FF00005B0
:107E640008BF3368E06008BFA361E780658101A9AA
:107E74000E4800F0BAFA36B1E36833600C4B756013
:107E84001B89B5723381FFF78FFF0020B8E702200A
:107E9400B6E70520B4E70420B2E70320B0E700BF4B
:107EA40098290020BC290020B42900208422002025
:107EB400A029002008B5084B1A68042A09D01968BB
:107EC400064A42F821000121184600F071FB002007
:107ED40008BD0C20FCE700BF7C2A00208829002074
:107EE4002DE9F04F89B01422002103A808F041FCC9
:107EF4007B4A137803F0FF01009190463BB103A83D
:107F0400FFF702FB0026304609B0BDE8F08F101DD4
:107F140000F064FB05460028F4D14FF010234FF025
:107F240080525B6911695269DFF8DCA1581C08BFF3
:107F340002FB01F3CAF810300022A3F5405369494B
:107F4400CAF80C30504600F06BFD06460028DAD122
:107F54001C238C226449654800F0E8F93746B3468F
:107F64004FF003093446CDF804A0019BD9680BEB0C
:107F7400010002465BF80110002835D05C4B9942A1
:107F840032D141685B4B994215D0013399422BD1D0
:107F9400009BDFF86CA1002B59D100225649CAF886
:107FA4000000FFF78DFBBAF80420022A14BF082250
:107FB400042217433AE051494FF0140C0CFB04FC23
:107FC40001EB0C024FF0000E01F80CE050600CF1D4
:107FD40010020CF1080C0A446144FFF771FB47F0EE
:107FE40002070134A4B221E000F5805C116801317C
:107FF40067D104329445F9D1414A116829B9022163
:1080040001231060918000930EE0142262433B4BE5
:108014004FF0020E991803F802E03A4A486054807F
:108024000134A1F808E0A4B247F001070BF5805B26
:10803400BBF5405F99D1B9F1010F88BF3D46EDB260
:10804400022D02D0062D12D0DDB90B265BE72B4B97
:108054001422624399184FF0020C03F802C0013451
:10806400DAF800204A60A1F808C0A4B295E7012319
:1080740088F8003003A80023C8F80430FFF744FA56
:1080840041E702A8FFF7FAFAC8B10123013D0370E2
:108094000A2D09D8DFE805F00608060807080708CE
:1080A4000F110F000023037102A9104800F09DF97D
:1080B400FFF77AFE27E70323F5E70223F3E7082611
:1080C40021E70E491422624301EB020C09F1FF3946
:1080D400CCF8040003201FFA89F9885481E700BF13
:1080E40098290020480D0300E42900208422002060
:1080F400DEC0ADDEFE011EF1782A0020BC2900207E
:10810400742A0020A02900206422002073B50D46A3
:108114000446C8B1C1B10DF10601FFF733FBA8B1A4
:108124000B4BBDF806006668142202FB00300121E7
:108134000C3000F03DFA63682E600C336B60012351
:10814400A372002002B070BD0520FBE70A20F9E706
:10815400BC29002013B50446A8B10DF10601FFF7B0
:1081640011FB90B10B4ABDF80630142101FB032327
:10817400DA6862B1A27A52B1DA680020013ADA60B0
:10818400A07202B010BD0520FBE70A20F9E7062023
:10819400F7E700BFBC2900200B4B1B7837B504461A
:1081A4000D4663B168B10DF106012846FFF7BCF92D
:1081B40018B9BDF806302380658003B030BD0220B5
:1081C400FBE70520F9E700BF98290020104B1B7836
:1081D40010B5B3B1B8B10288022A16D80D49438844
:1081E400142404FB02129C1C51898C420DDAC3F541
:1081F4007F43FD330B44538100230380438018469F
:1082040010BD0220FCE70520FAE70420F8E700BFD0
:1082140098290020BC29002002230022FFF7D2BDA8
:1082240012B10223FFF7CEBD0520704718B1032316
:108234000022FFF7C7BD052070470000104B1B78D4
:1082440013B50446ABB14FF6FF73984213D001A89F
:10825400FFF714FA88B10523037001230371C48066
:1082640001A9084800F0C1F8FFF79EFD002002B004
:1082740010BD0220FBE70420F9E70820F7E700BF60
:1082840098290020842200200E4B1B7807B5A3B147
:1082940001A8FFF7F3F990B10623037001A90A4876
:1082A40000F0A3F8094B1A780AB101221A73FFF7F8
:1082B4007BFD002003B05DF804FB0220FAE70820F0
:1082C400F8E700BF9829002084220020A02900207C
:1082D40007B5ADF8060002A820F8041D01460DF10B
:1082E4000600FFF7A5FA03B05DF804FB13B502AC72
:1082F400134624F8020D0A4600202146FFF798FA97
:1083040002B010BD13B502AC134624F8020D0A46A0
:1083140020460021FFF78CFA02B010BD20B119B13C
:1083240003680B60002070470520704710B561B1E9
:10833400B2FBF3F403FB1424A4B244B9C0E900145F
:1083440084608281C381204610BD0E20FCE7092091
:10835400FAE782B050E8022FC188B2EB324F4FF0F7
:10836400000317BF92B241EA014142EA014104E02D
:108374004268B2EB324F08BF012340E80212002AE0
:10838400E8D18DF807309DF80730002B0CBF112081
:10839400002002B0704737B550E8013F9DB2C48950
:1083A40025448489A54228BF2D1B0489A54202BF08
:1083B400BFF32F8F002207E0C5EA030540E801540C
:1083C400002CE9D14FF001028DF803200193019BA9
:1083D4009DF803200B6002F0FF0322B10B880068B4
:1083E400184403B030BD1846FBE70A884B889A420C
:1083F40009D150E8012FC2EA024240E80123002BD0
:10840400F7D1012070470020704737B550E8023F8C
:108414001FFAA3F5C488A54202BFBFF32F8F002221
:108424000DE0C48925448489A54228BF2D1BC3EAD5
:10843400054540E80254002CE8D14FF001028DF8C4
:1084440003200193019B9DF803200B6002F0FF03BE
:1084540022B14B880068184403B030BD1846FBE7CE
:108464000A884B889A4209D150E8022FC2EA224274
:1084740040E80223002BF7D1012070470020704709
:1084840001F01F024B090121914000EB830000F031
:1084940063B84B0910B501F01F040121A14000EBA2
:1084A400830000F04EF8E04000F0010010BD01F040
:1084B4001F0301229A404B0900EB8300D14300F0D3
:1084C40061B84B0901F01F0150F82300C84000F0C7
:1084D400010070472DE9F0474E1E760980460F468D
:1084E4000136002558F8254008EB850AE44394FA40
:1084F400A4F4B4FA84F44FEA4519202C06D10135CA
:10850400AE42EFD83C462046BDE8F0874C44A74233
:10851400F5D921464046FFF7BCFF0028F3D0DAF82E
:108524000040E44394FAA4F4B4FA84F4E5E750E890
:10853400002F0B4640E8003C9CF0000FF7D110469A
:10854400704750E8002F42EA010340E8003C9CF0E9
:10855400000FF6D11046704750E8003F43EA01028D
:1085640040E8002C9CF0000FF6D11046704750E80C
:10857400002F02EA010340E8003C9CF0000FF6D112
:108584001046704750E8003F03EA010240E8002C1F
:108594009CF0000FF6D11046704750E8002F02EB14
:1085A400010340E8003C9CF0000FF6D110467047F0
:1085B40050E8003F03EB010240E8002C9CF0000F60
:1085C400F6D11046704750E8003FA3EB010240E8A3
:1085D400002C9CF0000FF6D1104670470121FFF7E4
:1085E400B0BF0121FFF7B8BF0021FFF7C0BF10B52E
:1085F40090B1D0E9012301689B1ADBB20A60013B08
:10860400DBB2FF2B026802D10020107110BD11688B
:108614004C1C14600B70F2E70E20F7E737B50546E3
:1086240002A8002400F8014DFEF734FF2A686B68A5
:10863400116899420ED9481E106011F8014CEB687C
:10864400A98A01FB0434AB6811791B1ADBB2994285
:1086540038BF13719DF80700FEF740FF204603B0B2
:1086640030BD37B5054602A8002300F8013D0C468D
:10867400FEF710FF2A681368591C1160E968641A30
:10868400A98AB4FBF1F41C709DF80700FEF726FFDD
:1086940003B030BD826810B504462AB1436901684D
:1086A400006998470023A36010BD0EB403B5039975
:1086B40029B102AA04AB42F8043D00F06BF802B001
:1086C4005DF804EB03B07047826830B40468551C4D
:1086D4008560A154D0E901329A4202D330BCFFF73D
:1086E400D9BF30BC704700002DE9F84F9946DDE949
:1086F4000A431746824688460A460126BA420FD2E2
:108704004E4538BF4E4613F0010B01D164B9002425
:108714000125B9F1010F1AD909F1FF397D43F8E7B1
:10872400B2FBF7F20136E9E79B070ED5B9F1000F6A
:108734000CBF30252025A642EAD2013C29465046EA
:10874400FFF7C2FF002CF6D1E1E72025F3E7B8FBE1
:10875400F5F39F42E2D9DFF83890B8FBF5F35046C1
:1087640019F8031005FB1388FFF7AEFFB5FBF7F507
:10877400002DF2D1BBF1000F02D00CB1A64201D3FF
:10878400BDE8F88F20215046013CFFF79DFFF4E738
:108794005B0B03002DE9F74F054690460E46002972
:1087A40000F03A8116F8011B002958D0252940F021
:1087B400D180002702E047F001071646324612F83E
:1087C400013B2D2BF7D0302B04D02B2B05D147F0B8
:1087D4000407F2E747F00207EFE700242A2B06F12B
:1087E40001021BD1D8F80030191D1B68C8F800100D
:1087F4001C44164633782E2B1CD101364FF0000A48
:10880400314611F8012BA2F13000092814D80A23AB
:1088140003FB0A23A3F1300A0E46F1E712F8013CE8
:10882400A3F130010929E5D80A2101FB0434303CC5
:108834001646D3E74FF0000A324612F8011B01F046
:10884400FB0068281646F8D0692916D054D8582950
:1088540070D00ED825297DD03378002BA2D12B7B64
:10886400002B00F0D980284603B0BDE8F04FFFF795
:1088740011BF632968D06429EED1D8F80020D2F85A
:108884000090111D89EAE972C8F80010A2EBE972A0
:108894004FF0010B092A61DCD34538BFD3462CB114
:1088A400B9F1000F01DB790700D5013CBA0702D505
:1088B400BAF1000F04D0FB0702D4002C54D10024D9
:1088C400B9F1000F58DAC9F100092D212846FFF744
:1088D400FBFE07F00302022A05D1BAF1000F02D110
:1088E400002C4DD10024CDE9004753460A224946C5
:1088F4002846FFF7F9FEAFE7732954D016D870293C
:10890400AAD1D8F800301A1DC8F800203021284612
:108914001C68FFF7D9FE78212846FFF7D5FE002210
:108924000823CDE9003221461022E1E775292FD032
:10893400782991D1D8F800100A1DC8F80020CDE993
:108944000047534610222CE0D8F800301A1D19783D
:10895400C8F800202846FFF7B7FE7DE70A230BF18D
:10896400010B92FBF3F295E7A345A9D220212846F7
:10897400013CFFF7A9FEA0E77807AAD52B21A5E7BC
:10898400A345B0D230212846013CFFF79DFEA7E75E
:10899400D8F80010CDE900470A1DC8F80020534656
:1089A4000A220968A4E7D8F800301A1DC8F8002084
:1089B400F907D3F8009012D54F46A7EB090B17F827
:1089C400011B41B9A345BFF447AF20212846013C10
:1089D400FFF77AFEF6E72846FFF776FEEDE7B9F1F2
:1089E400000F17D0484607F019FF0746BC4200D9CC
:1089F40054B909F1FF3919F8011F00293FF42CAFCC
:108A04002846FFF761FEF6E720212846013CFFF7E0
:108A14005BFEEBE74F46E9E703B0BDE8F08F0000EB
:108A240007B50B4678B9104B104A18880E230093EB
:108A34000F4B00040F4940F00100FDF7AFFF0E207B
:108A440003B05DF804FB3BB9074B0B4A18880E23AF
:108A540000930004064BEDE703601B68114603B066
:108A64005DF804EB184700BF50220020180C0300E7
:108A74006B0B03001D0C0300940C03002DE9F34160
:108A840078B9354B354A1888354B0E2400040094C8
:108A9400344940F00100FDF781FF204602B0BDE8F3
:108AA400F0813AB92C4B304A18882D4B0E2400041F
:108AB4000094EDE7D0F800C0BCF1000F07D1264BBD
:108AC4002A4A1888264B082400040094E0E73BB99E
:108AD400214B274A1888224B092400040094D7E725
:108AE4004768D7F80480B3FBF8F708FB17373FB1A2
:108AF400194B204A18881A4B092400040094C7E72C
:108B04008F0707D0144B1C4A1888154B10240004F7
:108B14000094BDE712F0030F07D00F4B174A1888D3
:108B24000F4B102400040094B2E7C768B9420BD37A
:108B34004C1E05691C44AC4206D8DCF80C40A44623
:108B440002B0BDE8F0416047034B0D4A1888044B5E
:108B54001024000400949BE750220020180C03000A
:108B64007D0B03001D0C03009A0C03008E0C030004
:108B74004D0C0300A00C0300CA0C0300E20C03001C
:108B8400050D0300F7B570B9254B264A1888264B06
:108B94000E2400040094254940F00100FDF7FEFE78
:108BA400204603B0F0BDD0F800C0BCF1000F07D1DF
:108BB4001B4B1F4A18881C4B082400040094EAE746
:108BC4003AB9174B1B4A1888174B09240004009420
:108BD400E1E74768D7F800E00EF1FF370F4207D00E
:108BE4000F4B154A1888104B102400040094D2E748
:108BF400C768B9420CD34C1E05690EFB0244AC4253
:108C040006D8DCF81040A44603B0BDE8F040604745
:108C1400034B0A4A1888044B102400040094BAE752
:108C240050220020180C0300900B03001D0C0300BD
:108C34008E0C03004D0C0300A30B0300C90B0300AF
:108C44002DE9F04108B10368C3B90E4E0E4B14224E
:108C54009B1B0024B3FBF2F3374602FB03F5A5424A
:108C640001D1002008E03B5930190BB91434F6E760
:108C7400DB6998470028F9D0BDE8F081DB69BDE8DD
:108C8400F0411847642200207822002029DF704731
:108C940028DF704770B503689D6886B004460E46A9
:108CA4006DB114220021684607F063FDA3680593A3
:108CB400237901962BB1012B0DD06846A84706B045
:108CC40070BD01238DF8003023690293E368039398
:108CD40063690493F1E702238DF80030E3681B0312
:108CE4000293F5E70846704700207047024B187A54
:108CF400003018BF01207047182B0020034B187A4E
:108D04000122B0FA80F05A7440097047182B0020F1
:108D140008B510461A4607F003FD002008BD000000
:108D240008B514220021044807F023FD0348FFF787
:108D340010FB002008BD00BF182B00209822002043
:108D440010B5094C094B43602046FFF747FC40B976
:108D540006F002FD1C2320748C2205490548FFF708
:108D6400E5FA002010BD00BF182B00203C0D0300C5
:108D74008C2A00209822002070B5244D244E2B7A92
:108D84002C463BB923492448FFF73FFB306008B920
:108D9400686070BD0223237233681A7972B1012AA4
:108DA40024D018460321FFF775FF00232372636064
:108DB40018491948BDE87040FFF752BBD3E90520B4
:108DC400121AB2F5805F28BF4FF48052D3E903151D
:108DD4009208012A014438BF01222844FFF756FFB4
:108DE40050B11128DDD101232372D2E7D3E9030264
:108DF4001044FFF74DFFF3E7237C002BC9D1014654
:108E0400BDE87040022000F009B800BF182B002014
:108E1400302B00202C2B00209822002038B5831EF4
:108E2400012B45D8234C237A002B41D0022B09D1A6
:108E3400032830D0204B1B680022E2601A793AB133
:108E4400012A22D0637C7BBBBDE83840FFF794BF86
:108E5400D3E905128D1AB5F5805F94BF521902F556
:108E640080529A619142EDD102284FF0000308BF6D
:108E740019462372104B18BF0D211868FFF70AFF1B
:108E84000E490F48FFF7ECFADCE71A6901321A6160
:108E94005B699A42E7E7E3680133082B01D8E36092
:108EA400D0E70023E360DFE7BDE8384006F044BCC8
:108EB40038BD00BF182B0020302B00202C2B0020A5
:108EC4009822002000F0FD03012B08D1044B00225E
:108ED4005A74421E504250411874FFF74DBF7047F8
:108EE400182B002010B5064C201DFFF777FB28B97E
:108EF400637C1BB9BDE81040FFF73EBF10BD00BF47
:108F0400182B00202DE9F34180460D460F4801A996
:108F140016461F46FFF73FFA0446A8B11C2200215B
:108F240007F027FC2D0B0123237101A9C4F800804D
:108F3400A760E56066610548FFF757FAFFF7D2FFBF
:108F4400002002B0BDE8F0810420FAE79822002056
:108F54002DE9F74381468846104801A917461E4665
:108F6400FFF719FA0446B0B11C22002107F001FCF6
:108F740000250A9BA36001A92571C4F80090C4E9E7
:108F8400037866610548FFF730FAFFF7ABFF284620
:108F940003B0BDE8F0830420FAE700BF9822002064
:108FA400FFF725BBF8B546790146721E0546002336
:108FB40093422D6803D30024A64202D8F8BD01339E
:108FC400F6E70F682846FFF74CFB01343946F3E710
:108FD4002DE9F843868ACD1C0746FFF71FFB043EA4
:108FE40035440446B5FBF6F5F0B14FF48073EDB2A9
:108FF4008380C680013D076081464FF00008A84584
:1090040012D23846FFF70AFB064648B163790133AA
:10901400637108F10108C9F8000007608146EEE7B2
:109024002046FFF7BFFF34462046BDE8F883012100
:109034000430FFF7BDBA10B5012104460430FFF730
:10904400C2FA10F0FF0F04D12046BDE81040FFF72C
:10905400A9BF10BD2DE9F843C7880546181D8846E9
:10906400B0FBF7F4164607FB14003CB9A7EB000964
:10907400B14528BFB14626B9BDE8F8832D68013C47
:10908400F3E70430A6EB09064A4608EB040128443A
:1090940007F046FBB7424C442D68B9464FF0000038
:1090A40028BFB146E7E72DE9F843C7888846191D6C
:1090B4000546B1FBF7F4164607FB14113CB9A7EBC0
:1090C4000109B14528BFB14626B9BDE8F8832D682A
:1090D400013CF3E704312944A6EB09064A4608EBB0
:1090E400040007F01DFBB7424C442D68B9464FF00D
:1090F400000128BFB146E7E741DF7047064B10B5D2
:1091040000241C70054B1C60BFF35F8F04490548A5
:1091140000F030F8204610BD3C2B0020402B0020EE
:10912400780D0300342B002007B502A8002300F8B3
:10913400013DFEF7AFF9F1EE103A23F09F03E1EEA3
:10914400103ABFF35F8F0A4B4022C3F884219DF885
:109154000700FEF7C3F906F0FFFA20B1FFF7CCFFD2
:1091640003B05DF804FB20BF40BF20BFF8E700BF99
:1091740000E100E00B684A684360934208BF0023A3
:10918400016008BF43607047436843B10268916857
:1091940052680B449342436004BF0023436070470A
:1091A4000D4930B5A1F594720225914201D80020F1
:1091B4000EE08B1ADB1093FBF5F302EBC30452F8B9
:1091C4003330834205D802D204F10802EDE7606827
:1091D40030BD2146E9E700BFC80E030008B5FFF71C
:1091E400DFFF024B002808BF184608BD8D0D0300A1
:1091F4000C4B1B78062B10D10B4B1B681A070CD198
:109204000A4B186800F0F003302B08D000F0E0009F
:10921400A0F1400358425841704700207047012094
:10922400704700BFE00F00F0E40F00F0E80F00F01B
:10923400094B1B78062B0CD1084B1B681A0708D165
:10924400074B186800F0F000A0F130035842584171
:1092540070470020704700BFE00F00F0E40F00F0FB
:10926400E80F00F008B5FFF7C3FF28B17D4B7E4A35
:109274001B68C3F304231360FFF7DAFF10B17B4BC1
:109284007B4A1A60FFF7B4FF28B17A4B7A4A1B680D
:10929400C3F342331360FFF7CBFF20B1774AD3689F
:1092A40023F08073D360FFF7A3FF40B14FF08043F6
:1092B4000022C3F80C21C3F81021C3F83825FFF7A6
:1092C400B7FF10B16E4B03221A60FFF7B1FF40B134
:1092D4006C4B05221A6001229A6700229A603F2291
:1092E4005A60694B1B78062B50D1684B1B681907D1
:1092F4004CD1674B1B6803F0F003502B46D14FF061
:109304008052644BD2F80414C3F82015D2F8081420
:10931400C3F82415D2F80C14C3F82815D2F8101485
:10932400C3F82C15D2F81414C3F83015D2F8181455
:10933400C3F83415D2F81C14C3F84015D2F820141D
:10934400C3F84415D2F82414C3F84815D2F82814E5
:10935400C3F84C15D2F82C14C3F85015D2F83014B5
:10936400C3F85415D2F83414C3F86015D2F838147D
:10937400C3F86415D2F83C14C3F86815D2F8401445
:10938400C3F86C15D2F84424C3F87025FFF730FFF6
:1093940028B1414B414A1B6803F04F031360FFF7A8
:1093A40027FF48B14FF08043D3F80024D20744BFCD
:1093B4006FF00102C3F80024394B1B68062B08D157
:1093C400384B1B68062B01BF374A136843F480638C
:1093D4001360364AD2F8883043F47003C2F88830F8
:1093E400BFF34F8FBFF36F8F4FF01023D3F80022DA
:1093F400002A03DBD3F80432002B2FDA2C4B012292
:10940400C3F80425D3F80024002AFBD04FF010221F
:109414001521C2F80012D3F80024002AFBD04FF023
:1094240010231522C3F80422214B1A46D3F8001442
:109434000029FBD00021C3F80415D2F80034002B16
:10944400FBD0BFF34F8F19491A4BCA6802F4E0628C
:109454001343CB60BFF34F8F00BFFDE7164B174A92
:109464001A6008BD240300104035014074C0074051
:109474000DF0ADBA440200103C050040F0ED00E0F0
:10948400A005004010560040E00F00F0E40F00F08B
:10949400E80F00F000C0004058020010E40E004045
:1094A40030010010340100103C17004000ED00E0D2
:1094B40000E001400400FA05AC2200200090D00333
:1094C400054A4FF0A043105CD3F8043523FA00F0AA
:1094D400C04300F00100704786120300044B1A5C7D
:1094E400012393404FF0A042C2F80C35704700BFEF
:1094F40086120300044B1A5C012393404FF0A042F0
:10950400C2F80835704700BF8612030008B5002072
:10951400FFF7F0FF0120FFF7EDFF0220FFF7EAFF5E
:109524000320BDE80840FFF7E5BF08B50020FFF7BA
:10953400D5FF0120FFF7D2FF0220FFF7CFFF032062
:10954400BDE80840FFF7CABF074A4FF0A041105CCE
:10955400D1F804350122824022EA03001340C1F805
:109564000805C1F80C35704786120300054A4FF010
:10957400A043105CD3F8103523FA00F0C04300F088
:1095840001007047821203000D2809D00E2809D06B
:109594000F2809D010280CBF03204FF0FF3070476C
:1095A400002070470120704702207047014B185C6F
:1095B400704700BF82120300C20708B501460CD5EC
:1095C4004FF0A0430322C3F84427C3F84827C3F845
:1095D4004C27C3F85027FFF799FF8B070AD54FF0A4
:1095E400A0430C22C3F83427C3F83827C3F83C2718
:1095F400C3F8402708BD000038B5084C04F108033F
:109604000546002818BF1C4623682BB11A6822603F
:109614005B6828469847F7E738BD00BF4C2B00200D
:1096240020B9054B01225A70FFF7E6BF012802D189
:10963400014A9070F8E77047442B002020B9034B8F
:1096440001225A70FFF7D8BF704700BF442B002097
:1096540038B50B4C237883B90A486360A36023614F
:10966400E36000F05FF8054606F076F808B900F00C
:1096740067F801232370284638BD8525FBE700BF22
:10968400442B00202596020037B502A80023094C7C
:1096940000F8013DFDF7FEFEE368013BE360E56889
:1096A40015B900F061F8A5709DF80700FDF716FFE5
:1096B40003B030BD442B0020012813B509D003D3D7
:1096C40003281BD002B010BD0F4B0122C3F8802029
:1096D400F8E702A800230D4C00F8013DFDF7DAFE7F
:1096E40023780BB9FFF7B4FFE3689DF80700013353
:1096F400E3600123A370FDF7F1FEE3E700F020F837
:10970400FFF7C2FFDEE700BF00E100E0442B0020CA
:1097140000F18040002382B0036003680193019B41
:1097240002B07047054A13792BB9012110601171F9
:109734005371184670478520704700BF582B00208E
:10974400084B1A68D20706D4E02283F800230122CA
:10975400C3F880211A604FF080430122C3F8182512
:10976400704700BF00E100E0044B01221A604FF093
:109774008042D2F81834DB03FBD470470C0000405D
:10978400124B1B6810B573B14FF48070FFF7C0FF24
:109794004FF080430122C3F808230D4B587910B9C8
:1097A4005A711B6898470B4B1B6873B14FF4827056
:1097B400FFF7AEFF4FF080430222C3F80823044BA7
:1097C40001201B68BDE81040184710BD000100408F
:1097D400582B00200401004000F1804000F5C040F7
:1097E400002382B0036003680193019B02B07047B9
:1097F400800000F1A040D0F8003723F44033C0F8D3
:109804000037D0F8003743EA0141C0F80017704729
:10981400054B4FF0FF32072843F8202084BF1B1864
:1098240083F84820704700BF602B002010B5174C08
:1098340094F8583043BBFF21E2180133202B82F8FF
:109844003010F9D10021C8B2FFF7E2FF01310C2931
:10985400F9D1042200210E4806F08BFF0D4BE022C3
:1098640083F806234022C3F880214FF4BE701A60A7
:10987400FFF7B2FF084B4FF00042C3F80423012363
:1098840084F85830002010BD0820FCE7602B00202D
:10989400B42B002000E100E000600040034B93F88B
:1098A4005800003018BF0120704700BF602B002013
:1098B400F0B5394D2C18944694F93040002C68DAF0
:1098C4008E78C6F34006002E15BF00230823082710
:1098D4000C27BB4201D10420F0BD55F823200132EE
:1098E4004FEA830441D12F1845F823C087F830305C
:1098F40016B9EA1882F848008A78560716D4D707AA
:1099040035D5820002F1A042D2F8006726F00206A3
:10991400C2F80067214FC60800F0070C012202FAC2
:109924000CF217F806C042EA0C02BA558A780E788F
:1099340012F0020224D004F1804303F5C043000274
:10994400D3F8102522F4473222F44072C3F81025CC
:109954003604D3F8102500F4F85006F440363043AA
:109964001043C3F810050020B6E70133B1E74E7881
:1099740000F5E0724FF0A047B60047F82260C9E74F
:10998400083B2B4493F8500040EA861683F8506055
:10999400E9E70820A0E700BF602B0020B42B0020DB
:1099A40038B5204C251895F93020072A18DD2244B3
:1099B40092F848309B09032B0DD14FF0A043D3F804
:1099C4001035C34013F0010F0CBF02210321BDE881
:1099D4003840FFF70DBF012B14BF03210221F6E726
:1099E400D3B2072B1CD8930003F1804303F5C04383
:1099F400D3F8100540F00100C3F8100502F140004F
:109A0400800080B2FFF7E8FE51B195F9303054F888
:109A140023302BB1012303FA02F2034BC3F80423CE
:109A240038BD00BF602B0020006000404FF0A04311
:109A3400D3F8103523FA00F000F00100704700005D
:109A44002DE9FF470024584A584E594D01940121ED
:109A54001368A2F5C040012B80B206D1D6F80433B6
:109A64000B4202D0FFF7B8FE0C430432AA424FEA7D
:109A74004101EDD14F4B1B68012B0AD14FF4BE704D
:109A8400FFF7AAFE4FF0A04344F00044D3F810358A
:109A9400019314F0FF0F1AD0474F002501263442DA
:109AA40010D0AB0003F1804303F5C043D3F8100595
:109AB400D3F8101557F82530C0F30420C1F3014141
:109AC40003B198470135082D4FEA4606E7D1002C2B
:109AD40066DA00224FF0FF33CDE90223DFF8D89095
:109AE4000127002634464FF0A04809EB060393F9FA
:109AF4005020531C45D0D2B222F0C005E90804A876
:109B0400084402F0070310F804CC07FA03F31CEA34
:109B1400030F36D009EB050C92099CF930C059F8B3
:109B24002CA0BAF1000F0AD1032A2AD10DF1080E94
:109B34001EF801C04CEA030C0EF801C001E0032A30
:109B4400F4D005F5E07110F80C0C58F82110184207
:109B5400C1F3014105D0022913D1032A0BD11146C7
:109B640004E003290DD1032A05D102212846FFF779
:109B74003FFE0134E4B2BAF1000F02D01146284688
:109B8400D0470136042EB0D154B14FF0A043019A0E
:109B9400D3F81035934203D00193029B0393A0E7BB
:109BA40004B0BDE8F08700BF0061004000600040E1
:109BB400206100407C610040602B0020014B1B6849
:109BC400184700BFBC2B00200D4B984237B50D46FB
:109BD40010D102A8002300F8013DFDF75BFC094BFE
:109BE4001C7914B901221D601A719DF80700FDF754
:109BF40075FC14B9002003B030BD1120FBE700BF91
:109C040000200040BC2B0020034B984201BF034BB3
:109C140000221A601A71704700200040BC2B0020FB
:109C24000023435082B043580193019B02B0704714
:109C34002DE9F0470D789DF820609DF824A0044696
:109C44000F469946002D5FD1D0F8243192F8008058
:109C54003BB14FF49271FFF7E3FF012363613B7063
:109C640017E0D0F81C3153B34FF48E71FFF7D8FFCF
:109C7400D0F824311BB14FF492712046EBE71378EE
:109C84009E4212D919F80330C0F81C3513780133F9
:109C94001370B04536D1D4F804319BB34FF48271BC
:109CA4002046FFF7BDFF002504E00123BAF1000FB1
:109CB40003D0C3612846BDE8F0874361E9E7D0F8E3
:109CC4000831002BE5D04FF48471FFF7A9FFD0F8D9
:109CD4002431002BCFD113789E42DAD9D0F818154D
:109CE40009F8031013780133DBB21370721E934228
:109CF40005D10223C0F8003201232362C9E79E4242
:109D0400FAD1C6E70125D5E74FF49271FFF788FF32
:109D14004FF48E71FFF784FF4FF48471FFF780FFD7
:109D2400B9E72DE9FF470C4605461F46204642F297
:109D340010734FF48271164603939DF83080FFF739
:109D44006FFF4FF49271FFF76BFF4FF48E71FFF7C3
:109D540067FF4FF48471FFF763FF0023C4F80032F8
:109D640085F82E3085F82B3001232362A36095F803
:109D74002E2097421FD9B35CC4F81C3595F82E30B9
:109D8400013385F82E302B68E3B905F12E0A05F16D
:109D94002B09039B002B1FDC95F82B3053BB0020B1
:109DA400039B002B15DC0023C4F800350523C4F8FD
:109DB400003503200DE0B8F1000F01D0E361E2E7C4
:109DC4006361E0E740F28623AB60AB68C4F8043318
:109DD400002004B0BDE8F087CDE900783346524650
:109DE40049462046FFF724FF0028D5D0039B013BBA
:109DF4000393CEE7D4F8C434C4F8C434002BCED0D3
:109E040013F0010F14BF4FF40240032048F2012263
:109E140013F0020F18BF104613F0040F48F2022388
:109E240018BF1846BCE72DE9FF470C4605461F46F8
:109E3400204642F210734FF4827192460393FFF767
:109E4400EFFE4FF49271FFF7EBFE4FF48E71FFF7C4
:109E5400E7FE4FF48471FFF7E3FE0023012F2E6821
:109E640085F82E3085F82B3008BF02224FF001030D
:109E74000CBFC4F80022C4F8003223622360AEB9D8
:109E840005F12E0905F12B08039B002B18DC95F82E
:109E94002B301BBB0020039B002B0EDC0023C4F8DB
:109EA40000350523C4F80035032006E040F286237C
:109EB400AB60AB68C4F80433002004B0BDE8F0879D
:109EC400CDE9007653464A4641462046FFF7B0FEA8
:109ED4000028DCD0039B013B0393D5E7D4F8C434BA
:109EE400C4F8C434002BD5D013F0010F14BF4FF4C1
:109EF4000240032048F2012213F0020F18BF10465B
:109F040013F0040F48F2022318BF1846C3E70000F9
:109F1400F0B52D4C2D4894F8293089B004F12E0267
:109F2400019394F828300093636A04F12B01FFF73E
:109F34007FFE2746E8B994F82BC0266ABCF1000FCF
:109F44001ED1217B8B1E012B1AD8626AA3699A4207
:109F540016D1E269237D6262C6F34016032984F8B0
:109F6400283084F8296006D1009618492046FFF766
:109F7400D8FE09B0F0BD15492046FFF754FFF8E7B5
:109F8400134D0FCD03AC0FC42B682360BCF1000F3D
:109F940017D00E4AD2F8C434C2F8C43499070CD589
:109FA40001238DF80830002387F82C307307E0D4A0
:109FB400D7E9003102A89847DBE75A07F3D5022313
:109FC400EFE78DF808C0EEE7C42B00200030004016
:109FD400D02B00202DE9F84F0579364C4FF030088E
:109FE40008FB05F804EB08079B4697F82A308146DE
:109FF4000E469246002B59D12F490068FFF7E4FD25
:10A00400002855D13168737B87F82F3001F5E07251
:10A014004FF0A043B860C7F804B087F82C0087F865
:10A024002D0040F20C6744F808A043F822707268CF
:10A0340002F5E07C43F82C70D9F80030C3F8081519
:10A04400C3F80C25B268C3F82425BAF1000F25D053
:10A054001A0B53B2317B002BA8BF03F16046D2B276
:10A064004FEA5313B8BF02F00F074FEA4111B4BFD0
:10A07400124E06F561464FEA8303C9B203F1604309
:10A08400B4BFF15586F8001303F5614302F01F02D3
:10A09400012101FA02F2C3F880211A60302303FB84
:10A0A4000544012384F82A30BDE8F88F0820FBE733
:10A0B4001120F9E7C42B0020159F020014ED00E0E5
:10A0C400026803790521C2F80015044A302101FB16
:10A0D4000323022283F82A20704700BFC42B0020E8
:10A0E40003680A490279C3F80813D3F8001221F06F
:10A0F4000301C3F800120021C3F80015044B3021FA
:10A1040001FB0233012283F82A20704786420400AF
:10A11400C42B002070B504791A4D302363430646DE
:10A12400EB5863B103681B0B5AB20121520903F0C7
:10A134001F0301FA03F32032134941F82230304659
:10A14400FFF7CEFF3068FFF75FFD302303FB0453B6
:10A1540093F82F307BB93068D0F808354FF0A0421F
:10A1640003F5E073022142F82310D0F80C3503F50F
:10A17400E07342F82310302303FB0454002384F8D3
:10A184002A3070BDC42B002000E100E02DE9F74F18
:10A194002E4E90F80480D0F800E02D4BCEF8083312
:10A1A400302404FB08640F4694F82C30154603F061
:10A1B400FF0B33B1A368CEF80433112003B0BDE81C
:10A1C400F08F82F00403C3F3800384F82C302262FE
:10A1D4008A46BAE80F0004F10C0CACE80F00DAF878
:10A1E4000030CCF800307B6884F82830FA6862626A
:10A1F4007B78CEF888353B7808EB4809012B06EBD1
:10A2040009191BD0C3B9C5F34015302303FB0863F8
:10A21400714683F829503B7900954846FFF781FD44
:10A22400302303FB08F806EB080256F80830002B2D
:10A23400C4D182F82C30C1E70125E6E784F829B0BF
:10A244003B7971464846FFF7EEFDE9E7C42B002051
:10A2540086420400F0B587B004460F461546002137
:10A26400142201A81E4606F084FA9DF830308DF8B9
:10A274000570002B14BF2022002201A9204602965B
:10A284000495FFF783FF07B0F0BDF0B587B004462F
:10A294000F461546002112220DF106001E4606F057
:10A2A40068FA0123002201A920468DF804308DF8B4
:10A2B400057002960495FFF769FF07B0F0BD000032
:10A2C4001FB503788DF8003003798DF80430437995
:10A2D4008DF8053083688DF80630C3688DF8073033
:10A2E4000369029343690393054A064B684653F88E
:10A2F400213052F82110984705B05DF804FB00BFE7
:10A30400F42B0020FC2B0020024B4FF4807043F010
:10A3140001031847B01203002DE9F047914607786E
:10A32400324A42F82790324A42F827304B7B804623
:10A334000C4663B30868496882008B0002F1A042AE
:10A3440003F1A04340F20C65C2F800570126C3F89C
:10A3540000574FF0A04506FA00F006FA01F1C5F8DF
:10A364000805C5F8081540F20D61C2F80017C3F8D6
:10A374000017FFF7C9FF4FF0000AD5F810256368EE
:10A3840022FA03F3DB070FD5BAF1000F1FD1B9F19D
:10A39400000F3B46174A214608F1040008BF00227B
:10A3A400BDE8F047FFF716BE236806FA03F3C5F8C5
:10A3B4000C35FFF7A9FF236806FA03F3C5F808353F
:10A3C4000AF1010AFFF7A0FFBAF1090FD5D16368BA
:10A3D40001254FF0A04605FA03F3C6F80C35FFF744
:10A3E40093FF63689D40C6F80855D0E7FC2B002016
:10A3F400F42B0020C5A202002DE9F74F4FF0000A0C
:10A40400DFF89890204E07460425D0465FFA8AFB71
:10A4140001240DF1070004FA0BF48DF80780FDF711
:10A4240039F814EA090F08D0336814EA030201BFAB
:10A434002343336087F800B015469DF80700FDF705
:10A444004DF8D5B9114B1249188800045A4640F00A
:10A454000300FCF78FFA0D4B28461C88FEF7BEFE5E
:10A46400240444F0030403460A4A0B492046FCF73B
:10A474008BFA284603B0BDE8F08F39EA04090AF1E3
:10A48400010AC3D1E7E700BF042C002038220020D2
:10A4940033130300B61203004A130300FFFF010045
:10A4A40073B50B4689B382B301248440C4F310010D
:10A4B400174E31B3174909680C4224D0C4003588BB
:10A4C400154904F1804404F5F8342D04C4F810351A
:10A4D400C4F814250092024645F00300FCF75EFA26
:10A4E400002435882046FEF779FE2D0445F0030547
:10A4F40003460A4A0A492846FCF746FA204602B0AF
:10A5040070BD0724EDE70824EBE70E24F6E700BF4F
:10A5140038220020042C002068130300CD1203000D
:10A524004A13030070B5012484400B46C4F31001A0
:10A534000246134EF9B1134909680C421DD0348800
:10A54400114900F51170240441F820300F4944F0FA
:10A554000300FCF719FA002534882846FEF73EFE6E
:10A56400240444F003040346094A0A492046FCF73C
:10A574000BFA284670BD0725EEE70825ECE700BF77
:10A5840038220020042C002000F00140A71303000F
:10A59400E51203004A13030038B5012303FA00F05F
:10A5A400430C5B04C3B918B10D4B1B68184215D09A
:10A5B4000C4B0025C3F804050B4B28461C88FEF7FA
:10A5C4000DFE240444F003040346084A08492046C7
:10A5D400FCF7DAF9284638BD0725EDE70825EBE74F
:10A5E400042C002000F00140382200200213030054
:10A5F4004A13030038B5012303FA00F0430C5B044B
:10A60400C3B918B10D4B1B68184215D00C4B00256B
:10A61400C3F808050B4B28461C88FEF7DFFD24040D
:10A6240044F003040346084A08492046FCF7ACF901
:10A63400284638BD0725EDE70825EBE7042C002064
:10A6440000F00140382200201A1303004A130300CB
:10A65400034B187810B901221A707047852070478F
:10A66400082C00200220FEF76FBF00002DE9F04700
:10A6740081460D46FEF788FF0328044604D8012DC1
:10A6840004D024D3022D2FD0BDE8F087194D470004
:10A694003A18A918AE5C4A7852B1DFF868801648B7
:10A6A40042464FF40041FCF7A1FE08B988F8009037
:10A6B4003B192B449A78114B1A55002EE4D0104BB9
:10A6C4001B68002BE0D03046BDE8F04718470A4825
:10A6D400FCF7D0FE074B04EB440213449E78074B6F
:10A6E4001B5DB342D0D1E8E7024B00EB40041C44AD
:10A6F4006678E2E76C2C00202C2C0020852C0020AE
:10A70400802C0020092C002002210078FFF7AEBF26
:10A7140008B5094B1B7853B10020FEF7EBFE01206E
:10A72400FEF7E8FE0320BDE80840FEF7E3BEBDE8FF
:10A734000840FEF7EBBE00BF0A2C0020F8B5794CA8
:10A74400237805461BB100232370FFF7E1FF172D83
:10A7540000F28480DFE805F00C13133F5061727C33
:10A7640084898489919696969696C0C5CDD5E0E065
:10A77400FFF7CEFF6C4B00241C702046F8BD002070
:10A78400FEF79EFEF8B10020FEF7B4FE022D0CBFCA
:10A794004FF4E1614FF47A61634B1D704FF4004054
:10A7A4004FF4FA740025E0FB01454FF47A7200235C
:10A7B4002046294605F0AFFE002201465B48BDE86D
:10A7C400F840FCF713BEFEF789FE022D0CBFC8212A
:10A7D4004FF4C871E0E70020FEF772FE40B100209C
:10A7E400FEF788FE4FF448714F4B03221A70D5E7E9
:10A7F400FEF774FEC821F7E70020FEF761FE38B1CA
:10A804000020FEF777FE4FF47A61474B0422EDE710
:10A81400FEF764FE4FF4C871F7E70020FEF750FE20
:10A8240048B10020FEF766FE3F4B05221A7041F640
:10A834009A110022C2E7FEF751FEF5E70020FEF769
:10A8440083FE394B06221A70002240F6CD41B5E74B
:10A854000020FEF743FE344B07221A7000248CE7D5
:10A8640001202070FEF770FEEEE701202070FEF755
:10A874006BFE00224FF48041A0E7FEF756FE2A4B00
:10A884000C22EAE72A482B4EFCF7F4FDD5F111051A
:10A8940004461CD0D8B9012D13D0C8235D434FF40E
:10A8A40000474FF4FA7000214FF47A720023C7FB7B
:10A8B400050105F030FE224601461D48FCF796FDD1
:10A8C40004460220FEF70AFE0123337055E70220F6
:10A8D400FEF710FE0023F8E7FFF71AFF124B1222CF
:10A8E400BBE7FFF715FF0020FEF7F8FD0E4B132220
:10A8F400B3E7FFF70DFF0120FEF7F0FD0A4B14222A
:10A90400ABE7FFF705FF0020FEF7E8FD0120FEF7A7
:10A91400E5FD054B1522A0E7FEF707FE024B1D706F
:10A924009CE700BF7C2C0020842C00204C2C0020B1
:10A934000C2C00200A2C0020044B1B68DB0703D5D9
:10A94400034B1878FFF7FABE704700BF782C00203D
:10A95400842C0020032801D8FEF708BE002070478D
:10A96400044B1B6813F0010301D0FFF7E7BE184640
:10A97400704700BF782C002038B51C4B18601C4B66
:10A9840010F00204054619601AD01A4B1A480E2218
:10A994001A700F22DA7010229A7111225A7204214D
:10A9A40040F26662FCF726FA044648B9FCF776FAE8
:10A9B400044628B90146114A1148FCF705FD04462E
:10A9C400EB0711D50120FEF7F7FD6CB921460D4ABE
:10A9D4000D48FCF7F9FC044630B90C4A0C48012137
:10A9E400BDE83840FCF7F0BC204638BD782C002088
:10A9F400802C00206C2C0020D81303000DA702002B
:10AA0400FC1303003DA902000014030069A6020020
:10AA1400F8130300032812D8012A0BD1012908D105
:10AA240000F10E02D2B200EB40000C4B1A5400208D
:10AA3400704700220129F6D009D3022901D007204A
:10AA44007047064B00EB400018444270EFE7034B9D
:10AA540000EB400018448270E9E700BF6C2C002032
:10AA6400032808B512D8FEF7A1FD800000F1A0402C
:10AA7400D0F8003723F44033C0F80037D0F800375B
:10AA840043F44033C0F80037002008BD0620FCE73B
:10AA940008B5012202210020FFF7BCFF08B10728F6
:10AAA40010D1072202210120FFF7B4FF08B10728C3
:10AAB40008D100210A220846FFF7ACFF10B107288D
:10AAC40008BF002008BD00000388102B10B502D079
:10AAD400112B1ED010BD1A4C2168B1B901220846B1
:10AAE400FFF798FF08B1072824D10722022101208B
:10AAF400FFF790FF08B107281CD10422022100208F
:10AB0400FFF788FF08B1072814D1236801332360B5
:10AB1400E0E70B4A1368013B1360002BDAD1FFF71F
:10AB2400B7FF0028D6D0074B1B68002BD2D0BDE856
:10AB340010401847034B1B68002BE6D09847E4E706
:10AB4400902C00208C2C002008B50020FFF788FFF3
:10AB540008B1062806D10120FFF782FF10B10628AC
:10AB640008BF002008BD00000D4B10B518600C464E
:10AB740029B10120FFF7EEFE40B102232370094BF7
:10AB84001B6853B9BDE81040FFF782BFFFF7E2FE30
:10AB940008B10B23F2E72070F1E7002010BD00BFDD
:10ABA4008C2C0020902C002076DF70477ADF7047D1
:10ABB4007CDF70478FDF704733DF7047FCF784B961
:10ABC40037B5144D01A801F01FF92A78BDF90640E4
:10ABD40072B1BDF80410104801EB4101C1EB011141
:10ABE40089005A3189B200F011FD08B1FCF76CF903
:10ABF4006B7863B104EB4404C4EB0414A1005A3130
:10AC040089B2054800F05EFD08B1FCF75DF903B0B8
:10AC140030BD00BFC82D00208C2D002008B50020B9
:10AC2400FFF79EFE08B1FCF74FF9FFF78DFF08B15F
:10AC3400FCF74AF9FFF7C0FF18B1BDE80840FCF77C
:10AC440043B908BD73B52C4E2C4904463088000422
:10AC540040F00300FBF78AFE2388212B354640D0C1
:10AC640005D8102B14D0112B0AD002B070BD3B2B89
:10AC740001D0562BF9D11321A088FFF795FF37E0B7
:10AC840030881F49000440F00300FBF76FFEECE737
:10AC940030881C49000440F00300FBF767FE0720DE
:10ACA400FFF75EFE08B1FCF70FF92888164EA3885B
:10ACB40016493380000440F00300FBF757FE318847
:10ACC400134802F0A9FE044628881249000440F003
:10ACD4000300FBF74BFE002CC7D02046FCF7F4F82A
:10ACE400C3E702A9002321F8043DA088FFF762FF0F
:10ACF4000028BAD0F2E700BF382200200414030071
:10AD04000D1403001B140300B422002026140300B6
:10AD1400802D00204B140300294B188810B5000423
:10AD24000C4640F003002749FBF720FE2378052B4F
:10AD340015D8DFE803F0031525293A2D224B01220B
:10AD44001A70224B1A7852B94FF400412048FCF78C
:10AD54004DFB08B1FCF7B8F81C4B01221A7010BD6A
:10AD6400194B00221A70194B1B78012BF7D1184884
:10AD7400FCF780FB08B1FCF7A7F8144B0022EDE7C1
:10AD8400114B01225A70DCE70F4B00225A70EAE79C
:10AD940000224FF400510F48FCF728FB08B1FCF7E0
:10ADA40093F8BDE8104000F017BF0A48FCF762FBB7
:10ADB40008B1FCF789F8BDE8104000F029BF00BFD6
:10ADC40038220020FD140300C82D0020CA2D0020C5
:10ADD400602D0020A82D002008B503784BB9054B41
:10ADE4003B211888FFF7E0FE18B1BDE80840FCF7E6
:10ADF4006BB808BDB4220020072808B513D00A2870
:10AE04000DD0042819D10D4B13211888FFF7CCFE5F
:10AE140030F0080311D0BDE80840FCF755B8BDE890
:10AE24000840FFF7FBBE054B1A884FF6FF739A42A2
:10AE340003D1034801F001FDEAE708BDB422002074
:10AE4400942C002008B588B1032813D10A4B0B4970
:10AE54001888000440F00300FBF788FD0220FFF788
:10AE64007FFD38B1BDE80840FCF72EB8BDE80840C6
:10AE7400FFF7D4BE08BD00BF38220020EB14030046
:10AE840008B50321044801F078FB18B1BDE8084077
:10AE9400FCF71AB808BD00BF942C002030B5037825
:10AEA40085B004460D2B10D8DFE803F0070F110F0F
:10AEB400220F2A390F350F3932391A4B1A4918889B
:10AEC400000440F00300FBF751FD05B030BD154B05
:10AED40040881D8801F0B4FE2D04227A009245F0CA
:10AEE40003050246638811492846FBF757FDECE742
:10AEF40004A9002301F8043D408803F077FBE4E74C
:10AF0400FDF7C2F930F00803DFD0FBF7DDFFDCE723
:10AF1400FFF7B6FFD9E700690028D6D0F5E78068C7
:10AF2400FAE700BF38220020061503002F1503009E
:10AF34004FF0A042D2F80435D94301F4801103F450
:10AF44008013C2F80815C2F80C3500F0A7BEFBF751
:10AF5400BBBF000000B54FF40041ADB00020FBF7CB
:10AF64003DFB08B1FBF7B0FFFBF768FAFCF7FCF90F
:10AF740008B1FBF7A9FF9F4A9F480121FCF724FA77
:10AF840008B1FBF7A1FF9D4A9D480121FCF71CFA7B
:10AF940008B1FBF799FF9B490320FFF7EDFC08B1CB
:10AFA400FBF792FF01A90020FFF7DEFD08B1FBF7D4
:10AFB4008BFF9DF80450FEF7A1F808B1FBF784FF5E
:10AFC40004F046FB08B1FBF77FFF002301A9012031
:10AFD400019304F00BFC08B1FBF776FF01A804F021
:10AFE400AFFC08B1FBF770FF2CAC112304F8B03DA3
:10AFF400854805F013FC844982B22046FFF7D8FD4A
:10B0040008B1FBF761FF0021082201A805F0B1FB9C
:10B014007E494FF0C87301A8CDE90113FFF7C6FDBF
:10B0240008B1FBF751FF0021794802F0E7FB08B1B2
:10B03400FBF74AFF0021102201A805F09AFB754B8B
:10B0440075480093214602F0D5FC08B1FBF73CFF9C
:10B05400724B019341F21113ADF80A3011238DF8AC
:10B064000C30ADF8103001A900236D488DF8123072
:10B0740000F0A6F96B4C6C49064620880004324661
:10B0840040F00300FBF776FC16B13046FBF71CFFDB
:10B0940002220021654805F06CFB20886449000405
:10B0A40040F00300FBF762FCAC22002101A805F08C
:10B0B40060FB022306228DF804308DF8072001235B
:10B0C4005C4A8DF80630ADF8143006928DF8803065
:10B0D4004FF4967244F25063CDE9232301A9564BF1
:10B0E40056482A9301F0D7F908B1FBF7EDFE012188
:10B0F400524801F0CDF91C22002101A805F039FBCA
:10B1040000234FF42032CDE90132ADF812304FF470
:10B1140070228DF814304A4B039206930322494B54
:10B124008DF8102001A8079301F0A8FC08B1FBF7E3
:10B13400CBFE03F007FA08B1FBF7C6FE0522002197
:10B1440001A805F016FB9DF8043043F00103032227
:10B1540003F0F10362F306136FF3C7138DF80430A1
:10B1640007238DF8053010238DF806309DF807303D
:10B1740013438DF807309DF8083001A813438DF868
:10B18400083003F029FA08B1FBF79EFE2E4803F0BD
:10B194000BFA08B1FBF798FE20882C49000440F014
:10B1A4000300FBF7E3FB20882949000440F0030077
:10B1B400FBF7DCFB022D1AD120882649000440F05D
:10B1C4000300FBF7D3FB03F01FFA08B1FBF77CFE87
:10B1D40000F040FB00F070FB00F068FB00F042FC64
:10B1E400FBF762FA0028FBD1FDF79EFFF8E7FFF7B3
:10B1F40047FEEDE7C5AB02007814030035AF02004B
:10B204007C140300FDAD0200801403005000A00074
:10B214004C2D0020C1AB0200802D00201DAD02008A
:10B224008C2D0020382200208A140300C82D002011
:10B23400A3140300B022002049AE0200942C002085
:10B24400DDAD020053AF0200A1AE0200B214030050
:10B25400C9140300DE140300A8DF7047AADF704797
:10B26400ACDF7047AEDF704762DF704773B54A4E9C
:10B274004A4B054630881A68000401320C4640F0F7
:10B28400030047491A60FBF775FB30882A88454953
:10B29400000440F00300FBF76DFB14B32B88112B63
:10B2A4001CD03088502B4FEA00401CD0102B6DD19D
:10B2B4003D4940F00300FBF759FB30883B4900044B
:10B2C40040F00300FBF752FBAB88E38202A905239D
:10B2D40001F8043D23682046984702E04FF6FF73C7
:10B2E400E38202B070BD324940F00300FBF73EFB3D
:10B2F40030883049000440F00300FBF737FBEA884C
:10B30400E3889A4213D130882B49000440F00300AB
:10B31400FBF72CFB4FF0A042D2F80435D94301F4DB
:10B32400801103F48013C2F80815C2F80C35EA88BA
:10B3340063899A4210D12B8A022B0DD123685BB109
:10B3440005F1120001F0F2FCD0B100238DF80430B5
:10B3540001A9236820469847EA88638A9A42C0D1A3
:10B364002E8A022EBDD12368002BBAD005F112001B
:10B3740001F0DCFC30B18DF80460236801A9AAE770
:10B384000123E3E703238DF80430F6E70B4940F08B
:10B394000300FBF7EBFAA4E738220020CC2D0020B1
:10B3A4005F1603007B16030088160300A116030032
:10B3B400B8160300CF160300E1160300F7160300C6
:10B3C4002DE9F04F0D4695B0044600B161B9874BA5
:10B3D40087491888000440F00300FBF7C7FA0E27DA
:10B3E400384615B0BDE8F08F0B6803604FF6FF7365
:10B3F400C382804B04AA03F1100C174618685968DD
:10B40400164603C6083363453246F7D1384604F17D
:10B414001801FFF729FF07460028E1D1DFF8CCA186
:10B424007549BAF80000000440F00300FBF79EFAE7
:10B4340014A9227E8DF80A2021F8487D221D0120BE
:10B44400FFF70AFF0746BAF80000000437B13A468E
:10B454006A4940F00300FBF78DFAC1E7684940F000
:10B464000300FBF783FA39460322684605F081F9A5
:10B47400AA798DF801209DF802204FF0010969F3A3
:10B48400420239468DF802204FF0110B1C220DA800
:10B494008DF800B005F06DF99DF834200E9742F058
:10B4A4001A028DF8342001AE227E8DF80E20394622
:10B4B40003223046CDE910771397CDF848D0ADF884
:10B4C4000C9005F056F9EA798DF804202A7A8DF863
:10B4D40005209DF8062069F3420267F3C30267F36F
:10B4E400041267F3000239468DF8062008A81422D6
:10B4F40005F03FF903ABCDE908364FF0020808AA7E
:10B504000DA9A31DA088CDF82880ADF82C80FFF7E5
:10B51400A5FE0746BAF800003A4900043A4640F04E
:10B524000300FBF727FA002F7FF45AAFBAF80000A4
:10B534003549000440F00300FBF718FA39460322AA
:10B54400684605F016F92A7B8DF801209DF8022043
:10B554008DF800B069F3420239468DF802200DA837
:10B564001C2205F006F99DF834200E9767F341027A
:10B5740067F3C302D2B242F0100239468DF8342088
:10B5840030460322CDE910771397CDF848D005F063
:10B59400F0F86A7B8DF80420AA7B8DF805209DF8CD
:10B5A4000620ADF80C8069F3420267F3C30267F327
:10B5B400041267F300028DF80620227E8DF80E2017
:10B5C4003946142208A805F0D4F803ABCDE90836AF
:10B5D40008AA04F10E030DA9A088CDF82880ADF8BF
:10B5E4002C80FFF73BFE0746FAE600BF3822002016
:10B5F4007F1503006F150300A2150300C015030097
:10B60400F41503001016030050160300F0B5294E7C
:10B614000546308889B00004ADF8061040F00300F8
:10B624002549FBF7A3F9002D42D002AF08220021DF
:10B63400384605F09EF8022302933A460DF10603BC
:10B64400E988E88A0393FFF70BFE044620BBEA8AE5
:10B654004FF6FF739A4222D0102201460DEB0200EE
:10B6640005F087F8EB88ADF8103001238DF812301F
:10B67400BDF80A30ADF8143004A9039BE88A069794
:10B684000793FFF7EFFD044630880C490004224677
:10B6940040F00300FBF76EF9204609B0F0BD308896
:10B6A4000749000440F00300FBF760F90824F3E7BE
:10B6B4000E24F1E73822002020170300401703006E
:10B6C4005D170300F0B5294E0546308889B00004A3
:10B6D400ADF8061040F003002549FBF747F9002DAB
:10B6E40042D002AF08220021384605F042F8022376
:10B6F40002933A460DF10603E989E88A0393FFF7BA
:10B70400AFFD044620BBEA8A4FF6FF739A4222D06B
:10B71400102201460DEB020005F02BF8EB89ADF881
:10B72400103001238DF81230BDF80A30ADF8143012
:10B7340004A9039BE88A06970793FFF793FD044641
:10B7440030880C490004224640F00300FBF712F94C
:10B75400204609B0F0BD30880749000440F00300DA
:10B76400FBF704F90824F3E70E24F1E7382200205C
:10B774008F170300401703005D170300037813B904
:10B78400014B01221A707047D42D00207FB5164654
:10B7940004AA002302F8010D0D4600936821012339
:10B7A4001148FEF757FD40B9104B42F210721C4687
:10B7B400197821B9013AFBD10D2004B070BD0022E3
:10B7C4001A70682133462A460748FEF75EFD0028B2
:10B7D400F3D142F21073227812B9013BFBD1EBE7AB
:10B7E40000202070E9E700BFB0170300D42D00202B
:10B7F40010B5144C0346204688B000F8013B0122E2
:10B8040004F08EFF68238DF80D30022304939DF815
:10B8140003300D480022CDE9053403A9029B8DF8BD
:10B824000C200793FEF7B2FC084A42F21073117819
:10B8340021B9013BFBD10D2008B010BD00231370CA
:10B84400FAE700BFCB380020B0170300D42D002046
:10B85400704700001FB511211222CDE900124FF0EC
:10B86400CD62002302920222039369468DF80C20D4
:10B8740009480A4AFEF750FD044650B90848FEF745
:10B884001FFC084B08491888000440F00300FBF72C
:10B894006DF8204604B010BDAC17030081B7020058
:10B8A400B017030038220020321903000148FEF7C4
:10B8B40031BC00BFB017030073B502AD002305F817
:10B8C400043D012229467520FFF760FF5D4C9DF879
:10B8D40004205D4906462088000440F00300FBF77D
:10B8E40049F8208859490004324640F00300FBF728
:10B8F40041F816B13046FBF7E7FA20889DF804308A
:10B904000004712B40F0030040F095805049FBF790
:10B914002DF8012229466B20FFF738FF06462088C0
:10B924009DF804204B49000440F00300FBF722F883
:10B9340016B13046FBF7C8FA00216B20FFF758FF19
:10B9440008B1FBF7C1FA012229466B20FFF71EFF5D
:10B95400064620889DF804203E49000440F0030078
:10B96400FBF708F816B13046FBF7AEFA0122294678
:10B974001B20FFF70BFF064620889DF8042036495C
:10B98400000440F00300FAF7F5FF16B13046FBF768
:10B994009BFA102329461B208DF80430FFF728FF5B
:10B9A40008B1FBF791FA012229461B20FFF7EEFEAE
:10B9B400064620889DF804202749000440F003002F
:10B9C400FAF7D8FF16B13046FBF77EFA0122294672
:10B9D4001C20FFF7DBFE064620889DF804201F4943
:10B9E400000440F00300FAF7C5FF16B13046FBF738
:10B9F4006BFA9DF80430294643F018031C208DF897
:10BA04000430FFF7F5FE08B1FBF75EFA2946012280
:10BA14001C20FFF7BBFE054620889DF804200F4933
:10BA2400000440F00300FAF7A5FF28463DB1FBF7F8
:10BA34004BFA002003E00A49FAF798FF012002B00C
:10BA440070BD00BF38220020BC170300DE170300BE
:10BA54000F180300211803005B180300801803006B
:10BA64004518030038B5FEF7F3FD002800F0918077
:10BA7400852840F08D80494B49491888000440F0DE
:10BA84000300FAF773FF4748FEF7B6FC08B1FBF76B
:10BA94001BFA424C44492088000440F00300FAF7A2
:10BAA40065FF4FF0A0430322C3F84C273F4AD2F866
:10BAB400103523F4981323F4F853C2F81035D2F850
:10BAC400103543F4443343F44073C2F81035384B13
